:1000000012C02CC0DCC02AC029C028C027C026C00E
:1000100025C0FCC023C022C021C020C01FC01EC0FC
:100020001DC01CC01BC011241FBECFE5D4E0DEBF25
:10003000CDBF10E0A0E6B0E0E6EDF6E002C005902E
:100040000D92A037B107D9F710E0A0E7B0E001C0EA
:100050001D92AA37B107E1F7E3D03BC3D1CF11B866
:1000600088E480B9089594EA96BF06B607FEFDCFEE
:1000700091B1987F983011F0903179F483B984E888
:1000800086BF06B607FEFDCF91B1987F983139F053
:1000900081E0903429F480E0089581E0089580E0C3
:1000A000089544EA34E824E946BF06B607FEFDCFCA
:1000B00091B1987F983011F09031B1F783B936BF84
:1000C00006B607FEFDCF91B1987F903211F09835BA
:1000D00029F426BF06B604FCFDCFE6CF0895C3DFA2
:1000E000089584E986BF06B604FCFDCF089583B960
:1000F00084E886BF06B607FEFDCF91B1987F81E008
:10010000983209F480E0089584EC86BF06B607FEB5
:10011000FDCF83B1089584E886BF06B607FEFDCF04
:1001200083B10895FC017183608342830895FC01CB
:100130007183608342830895CF93DF93DC01ED9157
:10014000FC911197208181E090E012960C9012971B
:1001500002C0880F991F0A94E2F7282313962C9364
:10016000139718968D919C9119971696ED91FC9185
:10017000179780FF10C09C01359527951496CD9157
:10018000DC911597C20FD31F0990D881C02DCE0FD7
:10019000DF1FE881F9819595879514962D913C9103
:1001A0001597820F931F0995DF91CF910895FC0158
:1001B00075836483268337834087518708951F9210
:1001C0000F920FB60F9211242F933F934F935F938B
:1001D0006F937F938F939F93AF93BF93EF93FF930F
:1001E000809170009091710070D0FF91EF91BF915C
:1001F000AF919F918F917F916F915F914F913F91BF
:100200002F910F900FBE0F901F9018951F920F9275
:100210000FB60F9211240F900FBE0F901F901895DC
:100220000F931F931CDF85E090E0F8D08C012AD05B
:1002300000937000109371008AE090E0EFD08C0181
:1002400062E370E046E073DF009372001093730086
:100250008AE090E0E3D08C0162E370E047E067DF82
:10026000009374001093750060917000709171009C
:1002700026E931E040E050E08091720090917300F7
:1002800096DFFFCF0F931F93CF93DF93EC0186E0B0
:1002900090E0C4D08C014DD00B831C831A8219824C
:1002A0001882C80160E040E020E065D011BA88E023
:1002B00082BB90E89BBF85BF8FB780688FBF789463
:1002C000DF91CF911F910F910895FC018081982FAC
:1002D0009F5F90839F709A3011F4895F8083808143
:1002E000803621F4108281818F5F81838181982FF4
:1002F0009F709A3011F48A5F81838181803621F466
:10030000118282818F5F82838281982F9F709A30C1
:1003100011F48A5F82838281843209F4128283819C
:10032000948162814181208126D00895CEDF089595
:1003300008950F931F93CF93DF93EC0181E090E03A
:100340006DD08C0168E76ED00C831D8381E090E056
:1003500065D08C0160E766D00A831B8381E090E062
:100360005DD08C0162E75ED008831983DF91CF9165
:100370001F910F910895CF92DF92FF920F931F93D9
:10038000DF93CF930F92CDB7DEB76C01F62E822F9D
:1003900082958F7000E610E0F801E80FF11D608192
:1003A0006295607F2F70F801E20FF11D8081682B4C
:1003B000F60184819581498338D04981842F8295C3
:1003C0008F70F801E80FF11D60816295607F4F70BA
:1003D000F801E40FF11D8081682BF6018281938181
:1003E00024D08F2D82958F70F801E80FF11D608168
:1003F0006295607F8F2D8F70F801E80FF11D80816D
:10040000682BF6018081918110D00F90CF91DF9100
:100410001F910F91FF90DF90CF90089527D00895FE
:10042000BFD00895FC0160830895DF93CF930F92AE
:10043000CDB7DEB7FC018081698315DE6981862F27
:1004400056DE4FDE0F90CF91DF910895DF93CF936B
:100450000F92CDB7DEB7FC01808105DE5CDE8983BB
:1004600040DE89810F90CF91DF910895CF93DF9384
:100470008230910510F482E090E0E0917800F091F4
:10048000790040E050E020E030E026C060817181DA
:1004900068177907E0F06817790781F48281938102
:1004A0002115310531F0D90113969C938E93129743
:1004B0002BC0909379008093780026C04115510598
:1004C00019F06417750718F4AB01E901DF019F010A
:1004D00072816381E72FF62F3097C1F641155105E0
:1004E00001F1481B590B4430510580F412968D914F
:1004F0009C911397209719F09B838A8304C0909353
:10050000790080937800FD01329646C0FD01E40F2A
:10051000F51F819391934250504011965C934E93F6
:100520003BC020917600309177002115310541F4D0
:1005300020916C0030916D0030937700209376000D
:1005400020916E0030916F002115310541F42DB7D7
:100550003EB740916A0050916B00241B350BE0912F
:100560007600F0917700E217F307A0F42E1B3F0B03
:100570002817390778F0AC014E5F5F4F2417350715
:1005800048F04E0F5F1F50937700409376008193A1
:10059000919302C0E0E0F0E0CF01DF91CF910895A8
:1005A000CF93DF93009709F491C0FC013297138237
:1005B000128260917800709179006115710581F463
:1005C00020813181280F391F80917600909177002A
:1005D0008217930799F5F0937700E093760076C041
:1005E000DB0180E090E002C0CD01D901AE17BF076A
:1005F00048F412962D913C91139721153105A1F7DE
:10060000CD0121C0B383A283EF01499159919E018D
:10061000240F351FA217B30779F42D913C91119740
:10062000240F351F2E5F3F4F3183208312962D916B
:100630003C91139733832283009729F4F093790038
:10064000E093780043C0DC011396FC93EE9312977D
:100650004D915D91A40FB51FEA17FB0769F4208146
:100660003181240F351F2E5F3F4FEC0139832883E2
:10067000228133813B832A83E0E0F0E002C0FB016A
:10068000BC01DB0112968D919C9113970097B9F7ED
:100690009B012E5F3F4F8D919C911197820F931F6D
:1006A00040917600509177004817590779F43097B8
:1006B00029F4109279001092780002C013821282FD
:1006C000225030403093770020937600DF91CF9115
:0606D0000895F894FFCF2D
:1006D60004020A0B03010908000C20007A0000003E
:00000001FF
