:1000000012C02CC025C12AC029C028C027C026C0C4
:1000100025C045C123C022C021C020C01FC01EC0B2
:100020001DC01CC01BC011241FBECFE5D4E0DEBF25
:10003000CDBF10E0A0E6B0E0EAE5F9E002C005902F
:100040000D92A037B107D9F710E0A0E7B0E001C0EA
:100050001D92AA37B107E1F751D17DC4D1CF11B8B4
:1000600088E480B9089594EA96BF06B607FEFDCFEE
:1000700091B1987F983011F0903179F483B984E888
:1000800086BF06B607FEFDCF91B1987F983139F053
:1000900081E0903429F480E0089581E0089580E0C3
:1000A000089544EA34E824E946BF06B607FEFDCFCA
:1000B00091B1987F983011F09031B1F783B936BF84
:1000C00006B607FEFDCF91B1987F903211F09835BA
:1000D00029F426BF06B604FCFDCFE6CF0895C3DFA2
:1000E000089584E986BF06B604FCFDCF089583B960
:1000F00084E886BF06B607FEFDCF91B1987F81E008
:10010000983209F480E0089584EC86BF06B607FEB5
:10011000FDCF83B1089584E886BF06B607FEFDCF04
:1001200083B108950F93FC01DB013C918EEF90E0C9
:10013000022E02C0880F991F0A94E2F738233C93DD
:1001400051834083228304831582168217820F9184
:1001500008950F93FC01DB013C918EEF90E0022E9D
:1001600002C0880F991F0A94E2F738233C93518309
:100170004083228304831582168217820F9108958B
:10018000FC017187608722873387448755870895EC
:1001900021E0FC01278312BE83B7887F83BF83B72A
:1001A000856083BF789489B7816089BF0895CF93B4
:1001B000DF93EC01EDDF8C859D85EA85FB8580FF73
:1001C0000EC09C0135952795A885B985A20FB31F50
:1001D0000D90BC91A02DAE0FBF1FED91FC91959598
:1001E000879528853985820F931F0995DF91CF91D7
:1001F0000895CF93DF93EC018F81882319F5E8816F
:10020000F981208181E090E00A8002C0880F991F67
:100210000A94E2F728232B838C81882319F4222364
:1002200019F005C0222319F081E08D8301C01D82E1
:100230008E81882329F48D81813011F4CE01B7DFBE
:100240008D818E83DF91CF910895FC0117820895EF
:100250001F920F920FB60F9211242F933F934F933B
:100260005F936F937F938F939F93AF93BF93EF931E
:10027000FF938091700090917100B6D0FF91EF9143
:10028000BF91AF919F918F917F916F915F914F91AE
:100290003F912F910F900FBE0F901F9018951F92B6
:1002A0000F920FB60F9211242F933F934F935F93AA
:1002B0006F937F938F939F93AF93BF93EF93FF932E
:1002C00083B7887F83BF8091720090917300BDDFF8
:1002D0008091740090917500B8DFFF91EF91BF910C
:1002E000AF919F918F917F916F915F914F913F91CE
:1002F0002F910F900FBE0F901F901895FF920F93A4
:100300001F93ADDE8AE090E039D1F82E192F47D047
:10031000F0927000109371008EE090E02FD1F82ED3
:10032000192F61E370E040E350E026E001E011DFC7
:10033000F0927200109373008EE090E01FD1F82EBF
:10034000192F61E370E040E350E027E000E001DFB7
:10035000F0927400109375006091700070917100BC
:1003600029E132E040E050E08F2D912F09DF6091CC
:100370007000709171002AE032E040E050E080911E
:10038000720090917300FCDE809174009091750072
:1003900030DF80917200909173002BDFF5CF0F93C7
:1003A0001F93CF93DF93EC0111D186E090E0E6D06C
:1003B0008C016FD008871987C801288139814A814B
:1003C0005B816C817D8187D01E8211BA88E082BBFF
:1003D00090E89BBF85BF8FB780688FBF7894DF910F
:1003E000CF911F910F910895CF93DF93EC018E81F0
:1003F000882369F4CE0160E070E022D18885998578
:10040000288139814A815B816C817D8164D0DF9153
:10041000CF910895FC018681882319F481E08683B9
:1004200006C08781863011F4168208958F5F878316
:100430000895CF93DF93EC018E81882339F18F816A
:10044000813019F4CE012CD118C0823019F4CE01BC
:100450001CD113C0833019F4CE0132D10EC08430C8
:1004600019F4CE0125D109C0853019F4CE0138D157
:1004700004C0863011F4CE012BD18885998528815E
:1004800039814A815B816C817D8125D0DF91CF915B
:1004900008950F931F93CF93DF93EC0181E090E0D9
:1004A0006DD08C0168E76ED00C831D8381E090E0F5
:1004B00065D08C0160E766D00A831B8381E090E001
:1004C0005DD08C0162E75ED008831983DF91CF9104
:1004D0001F910F910895EF92FF920F931F93DF9357
:1004E000CF9300D000D000D0CDB7DEB77C012983F8
:1004F0003A834B835C836D837E8300E610E0F801D2
:10050000E70FF11D60816295607F8D81F801E80F32
:10051000F11D8081682BF7018481958136D08C8113
:10052000F801E80FF11D60816295607F8B81F80111
:10053000E80FF11D8081682BF7018281938125D01E
:100540008A81F801E80FF11D60816295607F8981E1
:10055000F801E80FF11D8081682BF70180819181FE
:1005600014D026960FB6F894DEBF0FBECDBFCF9144
:10057000DF911F910F91FF90EF900895B9D00895EA
:1005800051D10895FC0160830895DF93CF930F92BA
:10059000CDB7DEB7FC018081698365DD6981862F77
:1005A000A6DD9FDD0F90CF91DF910895DF93CF936C
:1005B0000F92CDB7DEB7FC01808155DDACDD8983BC
:1005C00090DD89810F90CF91DF910895FC01108219
:1005D000118212821382148215820895FC01848193
:1005E0008F5F84838A3019F5148285818F5F8583BC
:1005F0008630E9F4158282818F5F82838A30B9F474
:10060000128283818F5F8383863089F41382808195
:100610008F5F80839181923029F4843019F41182A4
:10062000108208958A3019F410829F5F9183089593
:100630000F931F938C01D2DFC8011F910F91089572
:100640000F931F938C01CADFC8011F910F9108956A
:10065000CF93DF93EC0186E090E090DFFC01108205
:10066000118212821382148215828881808389818B
:1006700081838A8182838B8183838C8184838D8132
:1006800085838E2FDF91CF910895FC0180818F5F4C
:1006900080839181923019F4843009F41082089596
:1006A000FC0181818F5F8183823009F4118208957A
:1006B000FC0182818F5F82838A3009F4128208955F
:1006C000FC0183818F5F8383863009F41382089550
:1006D000FC0184818F5F84838A3009F41482089539
:1006E000FC0185818F5F8583863009F4158208952A
:1006F000CF93DF938230910510F482E090E0E09197
:100700007800F091790040E050E020E030E026C031
:100710006081718168177907E0F06817790781F4C3
:10072000828193812115310531F0D90113969C9373
:100730008E9312972BC0909379008093780026C0F7
:100740004115510519F06417750718F4AB01E9015B
:10075000DF019F0172816381E72FF62F3097C1F689
:100760004115510501F1481B590B4430510580F4E6
:1007700012968D919C911397209719F09B838A83F1
:1007800004C09093790080937800FD01329646C0B2
:10079000FD01E40FF51F8193919342505040119653
:1007A0005C934E933BC020917600309177002115E9
:1007B000310541F420916C0030916D003093770049
:1007C0002093760020916E0030916F002115310545
:1007D00041F42DB73EB740916A0050916B00241B45
:1007E000350BE0917600F0917700E217F307A0F463
:1007F0002E1B3F0B2817390778F0AC014E5F5F4F77
:100800002417350748F04E0F5F1F50937700409331
:1008100076008193919302C0E0E0F0E0CF01DF9198
:10082000CF910895CF93DF93009709F491C0FC0115
:10083000329713821282609178007091790061156D
:10084000710581F420813181280F391F8091760054
:10085000909177008217930799F5F0937700E093D2
:10086000760076C0DB0180E090E002C0CD01D901C6
:10087000AE17BF0748F412962D913C91139721159E
:100880003105A1F7CD0121C0B383A283EF014991C6
:1008900059919E01240F351FA217B30779F42D91AA
:1008A0003C911197240F351F2E5F3F4F31832083DA
:1008B00012962D913C91139733832283009729F44C
:1008C000F0937900E093780043C0DC011396FC9329
:1008D000EE9312974D915D91A40FB51FEA17FB0798
:1008E00069F420813181240F351F2E5F3F4FEC01C9
:1008F00039832883228133813B832A83E0E0F0E03F
:1009000002C0FB01BC01DB0112968D919C911397F3
:100910000097B9F79B012E5F3F4F8D919C911197E6
:10092000820F931F40917600509177004817590726
:1009300079F4309729F4109279001092780002C06F
:100940001382128222503040309377002093760039
:0A095000DF91CF910895F894FFCFD6
:10095A0004020A0B03010908000C20007A000000B7
:00000001FF
